{
  "_format": "hh-sol-artifact-1",
  "contractName": "CredentialRegistry",
  "sourceName": "contracts/CredentialRegistry.sol",
  "abi": [
    {
      "inputs": [],
      "stateMutability": "nonpayable",
      "type": "constructor"
    },
    {
      "inputs": [
        {
          "internalType": "address",
          "name": "owner",
          "type": "address"
        }
      ],
      "name": "OwnableInvalidOwner",
      "type": "error"
    },
    {
      "inputs": [
        {
          "internalType": "address",
          "name": "account",
          "type": "address"
        }
      ],
      "name": "OwnableUnauthorizedAccount",
      "type": "error"
    },
    {
      "anonymous": false,
      "inputs": [
        {
          "indexed": true,
          "internalType": "string",
          "name": "certificateId",
          "type": "string"
        },
        {
          "indexed": false,
          "internalType": "string",
          "name": "firebaseUid",
          "type": "string"
        },
        {
          "indexed": false,
          "internalType": "string",
          "name": "certificateHash",
          "type": "string"
        },
        {
          "indexed": false,
          "internalType": "string",
          "name": "ipfsCid",
          "type": "string"
        },
        {
          "indexed": false,
          "internalType": "uint256",
          "name": "issuedAt",
          "type": "uint256"
        }
      ],
      "name": "CredentialIssued",
      "type": "event"
    },
    {
      "anonymous": false,
      "inputs": [
        {
          "indexed": true,
          "internalType": "address",
          "name": "previousOwner",
          "type": "address"
        },
        {
          "indexed": true,
          "internalType": "address",
          "name": "newOwner",
          "type": "address"
        }
      ],
      "name": "OwnershipTransferred",
      "type": "event"
    },
    {
      "inputs": [
        {
          "internalType": "string",
          "name": "_certificateId",
          "type": "string"
        }
      ],
      "name": "getCredential",
      "outputs": [
        {
          "components": [
            {
              "internalType": "string",
              "name": "certificateId",
              "type": "string"
            },
            {
              "internalType": "string",
              "name": "firebaseUid",
              "type": "string"
            },
            {
              "internalType": "string",
              "name": "certificateHash",
              "type": "string"
            },
            {
              "internalType": "string",
              "name": "ipfsCid",
              "type": "string"
            },
            {
              "internalType": "uint256",
              "name": "issuedAt",
              "type": "uint256"
            },
            {
              "internalType": "address",
              "name": "issuer",
              "type": "address"
            }
          ],
          "internalType": "struct CredentialRegistry.Credential",
          "name": "",
          "type": "tuple"
        }
      ],
      "stateMutability": "view",
      "type": "function"
    },
    {
      "inputs": [
        {
          "internalType": "string",
          "name": "_certificateHash",
          "type": "string"
        }
      ],
      "name": "getCredentialByHash",
      "outputs": [
        {
          "components": [
            {
              "internalType": "string",
              "name": "certificateId",
              "type": "string"
            },
            {
              "internalType": "string",
              "name": "firebaseUid",
              "type": "string"
            },
            {
              "internalType": "string",
              "name": "certificateHash",
              "type": "string"
            },
            {
              "internalType": "string",
              "name": "ipfsCid",
              "type": "string"
            },
            {
              "internalType": "uint256",
              "name": "issuedAt",
              "type": "uint256"
            },
            {
              "internalType": "address",
              "name": "issuer",
              "type": "address"
            }
          ],
          "internalType": "struct CredentialRegistry.Credential",
          "name": "",
          "type": "tuple"
        }
      ],
      "stateMutability": "view",
      "type": "function"
    },
    {
      "inputs": [
        {
          "internalType": "string",
          "name": "_certificateId",
          "type": "string"
        },
        {
          "internalType": "string",
          "name": "_firebaseUid",
          "type": "string"
        },
        {
          "internalType": "string",
          "name": "_certificateHash",
          "type": "string"
        },
        {
          "internalType": "string",
          "name": "_ipfsCid",
          "type": "string"
        }
      ],
      "name": "issueCredential",
      "outputs": [],
      "stateMutability": "nonpayable",
      "type": "function"
    },
    {
      "inputs": [],
      "name": "owner",
      "outputs": [
        {
          "internalType": "address",
          "name": "",
          "type": "address"
        }
      ],
      "stateMutability": "view",
      "type": "function"
    },
    {
      "inputs": [],
      "name": "renounceOwnership",
      "outputs": [],
      "stateMutability": "nonpayable",
      "type": "function"
    },
    {
      "inputs": [
        {
          "internalType": "address",
          "name": "newOwner",
          "type": "address"
        }
      ],
      "name": "transferOwnership",
      "outputs": [],
      "stateMutability": "nonpayable",
      "type": "function"
    },
    {
      "inputs": [
        {
          "internalType": "string",
          "name": "_certificateHash",
          "type": "string"
        }
      ],
      "name": "verifyCredential",
      "outputs": [
        {
          "internalType": "bool",
          "name": "verified",
          "type": "bool"
        },
        {
          "components": [
            {
              "internalType": "string",
              "name": "certificateId",
              "type": "string"
            },
            {
              "internalType": "string",
              "name": "firebaseUid",
              "type": "string"
            },
            {
              "internalType": "string",
              "name": "certificateHash",
              "type": "string"
            },
            {
              "internalType": "string",
              "name": "ipfsCid",
              "type": "string"
            },
            {
              "internalType": "uint256",
              "name": "issuedAt",
              "type": "uint256"
            },
            {
              "internalType": "address",
              "name": "issuer",
              "type": "address"
            }
          ],
          "internalType": "struct CredentialRegistry.Credential",
          "name": "credential",
          "type": "tuple"
        }
      ],
      "stateMutability": "view",
      "type": "function"
    }
  ],
  "bytecode": "0x608060405234801561001057600080fd5b50338061003757604051631e4fbdf760e01b81526000600482015260240160405180910390fd5b61004081610046565b50610096565b600080546001600160a01b038381166001600160a01b0319831681178455604051919092169283917f8be0079c531659141344cd1fd0a4f28419497f9722a3daafe3b4186f6b6457e09190a35050565b61166f806100a56000396000f3fe608060405234801561001057600080fd5b506004361061007d5760003560e01c8063b7d731c11161005b578063b7d731c1146100bf578063bb3670ab146100df578063d091187f14610100578063f2fde38b1461011357600080fd5b806342179bd014610082578063715018a6146100975780638da5cb5b1461009f575b600080fd5b610095610090366004611133565b610126565b005b61009561058e565b6000546040516001600160a01b0390911681526020015b60405180910390f35b6100d26100cd3660046111f7565b6105a2565b6040516100b69190611314565b6100f26100ed3660046111f7565b61093f565b6040516100b6929190611327565b6100d261010e3660046111f7565b610d01565b61009561012136600461134a565b610ff7565b61012e611035565b866101805760405162461bcd60e51b815260206004820152601e60248201527f43657274696669636174652049442063616e6e6f7420626520656d707479000060448201526064015b60405180910390fd5b846101cd5760405162461bcd60e51b815260206004820152601c60248201527f4669726562617365205549442063616e6e6f7420626520656d707479000000006044820152606401610177565b8261021a5760405162461bcd60e51b815260206004820181905260248201527f436572746966696361746520686173682063616e6e6f7420626520656d7074796044820152606401610177565b806102675760405162461bcd60e51b815260206004820152601860248201527f49504653204349442063616e6e6f7420626520656d70747900000000000000006044820152606401610177565b60018888604051610279929190611373565b9081526020016040518091039020600401546000146102da5760405162461bcd60e51b815260206004820152601a60248201527f436572746966696361746520616c7265616479206578697374730000000000006044820152606401610177565b600284846040516102ec929190611373565b9081526020016040518091039020805461030590611383565b1590506103545760405162461bcd60e51b815260206004820152601760248201527f4861736820616c726561647920726567697374657265640000000000000000006044820152606401610177565b6040518060c0016040528089898080601f016020809104026020016040519081016040528093929190818152602001838380828437600092019190915250505090825250604080516020601f8a0181900481028201810190925288815291810191908990899081908401838280828437600092019190915250505090825250604080516020601f880181900481028201810190925286815291810191908790879081908401838280828437600092019190915250505090825250604080516020601f8601819004810282018101909252848152918101919085908590819084018382808284376000920191909152505050908252504260208201523360409182015251600190610467908b908b90611373565b908152604051908190036020019020815181906104849082611422565b50602082015160018201906104999082611422565b50604082015160028201906104ae9082611422565b50606082015160038201906104c39082611422565b506080820151600482015560a090910151600590910180546001600160a01b0319166001600160a01b039092169190911790556040518890889060029061050d9088908890611373565b908152602001604051809103902091826105289291906114e2565b508787604051610539929190611373565b60405180910390207fc2f536f38cdc031201490ef96cba18315de85ede088bb3e66b319afa46bfe28b8787878787874260405161057c97969594939291906115cc565b60405180910390a25050505050505050565b610596611035565b6105a06000611062565b565b6105aa6110b2565b6000600284846040516105be929190611373565b908152602001604051809103902080546105d790611383565b80601f016020809104026020016040519081016040528092919081815260200182805461060390611383565b80156106505780601f1061062557610100808354040283529160200191610650565b820191906000526020600020905b81548152906001019060200180831161063357829003601f168201915b5050505050905060008151116106a85760405162461bcd60e51b815260206004820152601f60248201527f43657274696669636174652068617368206e6f742072656769737465726564006044820152606401610177565b6001816040516106b8919061161d565b90815260200160405180910390206040518060c00160405290816000820180546106e190611383565b80601f016020809104026020016040519081016040528092919081815260200182805461070d90611383565b801561075a5780601f1061072f5761010080835404028352916020019161075a565b820191906000526020600020905b81548152906001019060200180831161073d57829003601f168201915b5050505050815260200160018201805461077390611383565b80601f016020809104026020016040519081016040528092919081815260200182805461079f90611383565b80156107ec5780601f106107c1576101008083540402835291602001916107ec565b820191906000526020600020905b8154815290600101906020018083116107cf57829003601f168201915b5050505050815260200160028201805461080590611383565b80601f016020809104026020016040519081016040528092919081815260200182805461083190611383565b801561087e5780601f106108535761010080835404028352916020019161087e565b820191906000526020600020905b81548152906001019060200180831161086157829003601f168201915b5050505050815260200160038201805461089790611383565b80601f01602080910402602001604051908101604052809291908181526020018280546108c390611383565b80156109105780601f106108e557610100808354040283529160200191610910565b820191906000526020600020905b8154815290600101906020018083116108f357829003601f168201915b5050509183525050600482015460208201526005909101546001600160a01b0316604090910152949350505050565b60006109496110b2565b60006002858560405161095d929190611373565b9081526020016040518091039020805461097690611383565b80601f01602080910402602001604051908101604052809291908181526020018280546109a290611383565b80156109ef5780601f106109c4576101008083540402835291602001916109ef565b820191906000526020600020905b8154815290600101906020018083116109d257829003601f168201915b505050505090508051600003610a605750506040805160e081018252600060c082018181528252825160208181018552828252808401919091528351808201855282815283850152835190810190935280835260608201929092526080810182905260a08101829052909150610cfa565b60018082604051610a71919061161d565b9081526020016040518091039020806040518060c0016040529081600082018054610a9b90611383565b80601f0160208091040260200160405190810160405280929190818152602001828054610ac790611383565b8015610b145780601f10610ae957610100808354040283529160200191610b14565b820191906000526020600020905b815481529060010190602001808311610af757829003601f168201915b50505050508152602001600182018054610b2d90611383565b80601f0160208091040260200160405190810160405280929190818152602001828054610b5990611383565b8015610ba65780601f10610b7b57610100808354040283529160200191610ba6565b820191906000526020600020905b815481529060010190602001808311610b8957829003601f168201915b50505050508152602001600282018054610bbf90611383565b80601f0160208091040260200160405190810160405280929190818152602001828054610beb90611383565b8015610c385780601f10610c0d57610100808354040283529160200191610c38565b820191906000526020600020905b815481529060010190602001808311610c1b57829003601f168201915b50505050508152602001600382018054610c5190611383565b80601f0160208091040260200160405190810160405280929190818152602001828054610c7d90611383565b8015610cca5780601f10610c9f57610100808354040283529160200191610cca565b820191906000526020600020905b815481529060010190602001808311610cad57829003601f168201915b5050509183525050600482015460208201526005909101546001600160a01b031660409091015291945090925050505b9250929050565b610d096110b2565b600060018484604051610d1d929190611373565b90815260200160405180910390206040518060c0016040529081600082018054610d4690611383565b80601f0160208091040260200160405190810160405280929190818152602001828054610d7290611383565b8015610dbf5780601f10610d9457610100808354040283529160200191610dbf565b820191906000526020600020905b815481529060010190602001808311610da257829003601f168201915b50505050508152602001600182018054610dd890611383565b80601f0160208091040260200160405190810160405280929190818152602001828054610e0490611383565b8015610e515780601f10610e2657610100808354040283529160200191610e51565b820191906000526020600020905b815481529060010190602001808311610e3457829003601f168201915b50505050508152602001600282018054610e6a90611383565b80601f0160208091040260200160405190810160405280929190818152602001828054610e9690611383565b8015610ee35780601f10610eb857610100808354040283529160200191610ee3565b820191906000526020600020905b815481529060010190602001808311610ec657829003601f168201915b50505050508152602001600382018054610efc90611383565b80601f0160208091040260200160405190810160405280929190818152602001828054610f2890611383565b8015610f755780601f10610f4a57610100808354040283529160200191610f75565b820191906000526020600020905b815481529060010190602001808311610f5857829003601f168201915b5050509183525050600482015460208201526005909101546001600160a01b03166040909101526080810151909150610ff05760405162461bcd60e51b815260206004820152601a60248201527f436572746966696361746520646f6573206e6f742065786973740000000000006044820152606401610177565b9392505050565b610fff611035565b6001600160a01b03811661102957604051631e4fbdf760e01b815260006004820152602401610177565b61103281611062565b50565b6000546001600160a01b031633146105a05760405163118cdaa760e01b8152336004820152602401610177565b600080546001600160a01b038381166001600160a01b0319831681178455604051919092169283917f8be0079c531659141344cd1fd0a4f28419497f9722a3daafe3b4186f6b6457e09190a35050565b6040518060c00160405280606081526020016060815260200160608152602001606081526020016000815260200160006001600160a01b031681525090565b60008083601f84011261110357600080fd5b50813567ffffffffffffffff81111561111b57600080fd5b602083019150836020828501011115610cfa57600080fd5b6000806000806000806000806080898b03121561114f57600080fd5b883567ffffffffffffffff8082111561116757600080fd5b6111738c838d016110f1565b909a50985060208b013591508082111561118c57600080fd5b6111988c838d016110f1565b909850965060408b01359150808211156111b157600080fd5b6111bd8c838d016110f1565b909650945060608b01359150808211156111d657600080fd5b506111e38b828c016110f1565b999c989b5096995094979396929594505050565b6000806020838503121561120a57600080fd5b823567ffffffffffffffff81111561122157600080fd5b61122d858286016110f1565b90969095509350505050565b60005b8381101561125457818101518382015260200161123c565b50506000910152565b60008151808452611275816020860160208601611239565b601f01601f19169290920160200192915050565b6000815160c0845261129e60c085018261125d565b9050602083015184820360208601526112b7828261125d565b915050604083015184820360408601526112d1828261125d565b915050606083015184820360608601526112eb828261125d565b6080858101519087015260a0948501516001600160a01b03169490950193909352509192915050565b602081526000610ff06020830184611289565b82151581526040602082015260006113426040830184611289565b949350505050565b60006020828403121561135c57600080fd5b81356001600160a01b0381168114610ff057600080fd5b8183823760009101908152919050565b600181811c9082168061139757607f821691505b6020821081036113b757634e487b7160e01b600052602260045260246000fd5b50919050565b634e487b7160e01b600052604160045260246000fd5b601f82111561141d57600081815260208120601f850160051c810160208610156113fa5750805b601f850160051c820191505b8181101561141957828155600101611406565b5050505b505050565b815167ffffffffffffffff81111561143c5761143c6113bd565b6114508161144a8454611383565b846113d3565b602080601f831160018114611485576000841561146d5750858301515b600019600386901b1c1916600185901b178555611419565b600085815260208120601f198616915b828110156114b457888601518255948401946001909101908401611495565b50858210156114d25787850151600019600388901b60f8161c191681555b5050505050600190811b01905550565b67ffffffffffffffff8311156114fa576114fa6113bd565b61150e836115088354611383565b836113d3565b6000601f841160018114611542576000851561152a5750838201355b600019600387901b1c1916600186901b17835561159c565b600083815260209020601f19861690835b828110156115735786850135825560209485019460019092019101611553565b50868210156115905760001960f88860031b161c19848701351681555b505060018560011b0183555b5050505050565b81835281816020850137506000828201602090810191909152601f909101601f19169091010190565b6080815260006115e060808301898b6115a3565b82810360208401526115f381888a6115a3565b905082810360408401526116088186886115a3565b91505082606083015298975050505050505050565b6000825161162f818460208701611239565b919091019291505056fea26469706673582212209d252bf31f1097c601c8bb61802c7c9baa9e4dfbbdf2b0cd0a575d3530fb3a7464736f6c63430008140033",
  "linkReferences": {},
  "deployedLinkReferences": {}
}